{
  "contractName": "ProjectDate",
  "abi": [
    {
      "constant": true,
      "inputs": [],
      "name": "Year",
      "outputs": [
        {
          "name": "",
          "type": "uint256"
        }
      ],
      "payable": false,
      "stateMutability": "view",
      "type": "function"
    },
    {
      "constant": true,
      "inputs": [],
      "name": "Month",
      "outputs": [
        {
          "name": "",
          "type": "uint256"
        }
      ],
      "payable": false,
      "stateMutability": "view",
      "type": "function"
    },
    {
      "constant": true,
      "inputs": [],
      "name": "Day",
      "outputs": [
        {
          "name": "",
          "type": "uint256"
        }
      ],
      "payable": false,
      "stateMutability": "view",
      "type": "function"
    },
    {
      "constant": true,
      "inputs": [
        {
          "name": "other",
          "type": "address"
        }
      ],
      "name": "isLaterDate",
      "outputs": [
        {
          "name": "",
          "type": "bool"
        }
      ],
      "payable": false,
      "stateMutability": "view",
      "type": "function"
    }
  ],
  "bytecode": "0x6060604052341561000f57600080fd5b6105ed8061001e6000396000f300606060405260043610610062576000357c0100000000000000000000000000000000000000000000000000000000900463ffffffff1680630d869fe7146100675780632ef82a4a14610090578063a5ea08a2146100e1578063c533a09c1461010a575b600080fd5b341561007257600080fd5b61007a610133565b6040518082815260200191505060405180910390f35b341561009b57600080fd5b6100c7600480803573ffffffffffffffffffffffffffffffffffffffff16906020019091905050610139565b604051808215151515815260200191505060405180910390f35b34156100ec57600080fd5b6100f46105b5565b6040518082815260200191505060405180910390f35b341561011557600080fd5b61011d6105bb565b6040518082815260200191505060405180910390f35b60025481565b60003073ffffffffffffffffffffffffffffffffffffffff16630d869fe76000604051602001526040518163ffffffff167c0100000000000000000000000000000000000000000000000000000000028152600401602060405180830381600087803b15156101a757600080fd5b6102c65a03f115156101b857600080fd5b505050604051805190508273ffffffffffffffffffffffffffffffffffffffff16630d869fe76000604051602001526040518163ffffffff167c0100000000000000000000000000000000000000000000000000000000028152600401602060405180830381600087803b151561022e57600080fd5b6102c65a03f1151561023f57600080fd5b50505060405180519050111561025857600190506105b0565b3073ffffffffffffffffffffffffffffffffffffffff16630d869fe76000604051602001526040518163ffffffff167c0100000000000000000000000000000000000000000000000000000000028152600401602060405180830381600087803b15156102c457600080fd5b6102c65a03f115156102d557600080fd5b505050604051805190508273ffffffffffffffffffffffffffffffffffffffff16630d869fe76000604051602001526040518163ffffffff167c0100000000000000000000000000000000000000000000000000000000028152600401602060405180830381600087803b151561034b57600080fd5b6102c65a03f1151561035c57600080fd5b50505060405180519050101561037557600090506105b0565b3073ffffffffffffffffffffffffffffffffffffffff1663a5ea08a26000604051602001526040518163ffffffff167c0100000000000000000000000000000000000000000000000000000000028152600401602060405180830381600087803b15156103e157600080fd5b6102c65a03f115156103f257600080fd5b505050604051805190508273ffffffffffffffffffffffffffffffffffffffff1663a5ea08a26000604051602001526040518163ffffffff167c0100000000000000000000000000000000000000000000000000000000028152600401602060405180830381600087803b151561046857600080fd5b6102c65a03f1151561047957600080fd5b50505060405180519050111561049257600190506105b0565b3073ffffffffffffffffffffffffffffffffffffffff1663a5ea08a26000604051602001526040518163ffffffff167c0100000000000000000000000000000000000000000000000000000000028152600401602060405180830381600087803b15156104fe57600080fd5b6102c65a03f1151561050f57600080fd5b505050604051805190508273ffffffffffffffffffffffffffffffffffffffff1663a5ea08a26000604051602001526040518163ffffffff167c0100000000000000000000000000000000000000000000000000000000028152600401602060405180830381600087803b151561058557600080fd5b6102c65a03f1151561059657600080fd5b5050506040518051905010156105af57600090506105b0565b5b919050565b60015481565b600054815600a165627a7a723058207826d97cfc531182baa10c3ca0646368b7d7f236087eb9b38b514589af7f55a00029",
  "source": "pragma solidity ^0.4.17;\n\ncontract ProjectDate {\n    uint public Day;\n    uint public Month;\n    uint public Year;\n\n    \n\n   function isLaterDate(ProjectDate other) public view returns(bool) {\n       if (other.Year() > this.Year()) {\n           return true;\n       } else if (other.Year() < this.Year()) {\n           return false;\n       } else if (other.Month() > this.Month()) {\n           return true;\n       } else if (other.Month() < this.Month()) {\n           return false;\n       }\n   } \n}",
  "sourcePath": "/home/matthew/Development/blockchain_project_mgmt_app/App/contracts/PM/ProjectDate.sol",
  "compiler": {
    "name": "solc",
    "version": "0.4.19+commit.c4cbbb05.Emscripten.clang"
  },
  "schemaVersion": "2.0.0",
  "updatedAt": "2018-03-12T17:35:05.031Z"
}