{
  "contractName": "ProjectDate",
  "abi": [
    {
      "constant": true,
      "inputs": [],
      "name": "Year",
      "outputs": [
        {
          "name": "",
          "type": "uint256"
        }
      ],
      "payable": false,
      "stateMutability": "view",
      "type": "function"
    },
    {
      "constant": true,
      "inputs": [],
      "name": "Month",
      "outputs": [
        {
          "name": "",
          "type": "uint256"
        }
      ],
      "payable": false,
      "stateMutability": "view",
      "type": "function"
    },
    {
      "constant": true,
      "inputs": [],
      "name": "Day",
      "outputs": [
        {
          "name": "",
          "type": "uint256"
        }
      ],
      "payable": false,
      "stateMutability": "view",
      "type": "function"
    },
    {
      "inputs": [],
      "payable": false,
      "stateMutability": "nonpayable",
      "type": "constructor"
    },
    {
      "constant": true,
      "inputs": [],
      "name": "contractVersion",
      "outputs": [
        {
          "name": "",
          "type": "bytes32"
        }
      ],
      "payable": false,
      "stateMutability": "view",
      "type": "function"
    },
    {
      "constant": false,
      "inputs": [
        {
          "name": "year",
          "type": "uint256"
        },
        {
          "name": "month",
          "type": "uint256"
        },
        {
          "name": "day",
          "type": "uint256"
        }
      ],
      "name": "setDate",
      "outputs": [],
      "payable": false,
      "stateMutability": "nonpayable",
      "type": "function"
    }
  ],
  "bytecode": "0x60606040527f312e302e30000000000000000000000000000000000000000000000000000000600090600019169055341561003957600080fd5b7f312e302e31000000000000000000000000000000000000000000000000000000600081600019169055506101b4806100736000396000f30060606040526004361061006d576000357c0100000000000000000000000000000000000000000000000000000000900463ffffffff1680630d869fe71461007257806328760e601461009b578063a0a8e460146100d0578063a5ea08a214610101578063c533a09c1461012a575b600080fd5b341561007d57600080fd5b610085610153565b6040518082815260200191505060405180910390f35b34156100a657600080fd5b6100ce6004808035906020019091908035906020019091908035906020019091905050610159565b005b34156100db57600080fd5b6100e3610173565b60405180826000191660001916815260200191505060405180910390f35b341561010c57600080fd5b61011461017c565b6040518082815260200191505060405180910390f35b341561013557600080fd5b61013d610182565b6040518082815260200191505060405180910390f35b60035481565b806001819055508160028190555082600381905550505050565b60008054905090565b60025481565b600154815600a165627a7a723058202d2b06edf1f844580d81a8677b2603e8ce3ba46ddba62001749b1c4f6e5a1b050029",
  "source": "pragma solidity ^0.4.17;\n\nimport \"../ContractBase.sol\";\nimport \"./IProjectDate.sol\";\n\ncontract ProjectDate is ContractBase, IProjectDate {\n    uint public Day;\n    uint public Month;\n    uint public Year;\n\n    function ProjectDate() public {\n        VERSION = \"1.0.1\";\n    }\n\n    function contractVersion() public view returns (bytes32) {\n        return VERSION;\n    }\n   \n    function setDate(uint year, uint month, uint day) public {\n        Day = day;\n        Month = month;\n        Year = year;\n    }\n    \n    \n}",
  "sourcePath": "/home/matthew/Development/blockchain_project_mgmt_app/App/contracts/PM/ProjectDate.sol",
  "compiler": {
    "name": "solc",
    "version": "0.4.19+commit.c4cbbb05.Emscripten.clang"
  },
  "schemaVersion": "2.0.0",
  "updatedAt": "2018-03-13T14:36:06.124Z"
}