{
  "contractName": "ProjectDateProxy",
  "abi": [
    {
      "constant": false,
      "inputs": [
        {
          "name": "targetContract",
          "type": "address"
        }
      ],
      "name": "setTargetAddress",
      "outputs": [],
      "payable": false,
      "stateMutability": "nonpayable",
      "type": "function"
    },
    {
      "constant": false,
      "inputs": [
        {
          "name": "year",
          "type": "uint256"
        },
        {
          "name": "month",
          "type": "uint256"
        },
        {
          "name": "day",
          "type": "uint256"
        }
      ],
      "name": "setDate",
      "outputs": [],
      "payable": false,
      "stateMutability": "nonpayable",
      "type": "function"
    }
  ],
  "bytecode": "0x6060604052341561000f57600080fd5b6101e68061001e6000396000f30060606040526004361061004c576000357c0100000000000000000000000000000000000000000000000000000000900463ffffffff16806328760e6014610051578063fd8b237014610086575b600080fd5b341561005c57600080fd5b61008460048080359060200190919080359060200190919080359060200190919050506100bf565b005b341561009157600080fd5b6100bd600480803573ffffffffffffffffffffffffffffffffffffffff16906020019091905050610177565b005b6000809054906101000a900473ffffffffffffffffffffffffffffffffffffffff1673ffffffffffffffffffffffffffffffffffffffff166328760e608484846040518463ffffffff167c0100000000000000000000000000000000000000000000000000000000028152600401808481526020018381526020018281526020019350505050600060405180830381600087803b151561015e57600080fd5b6102c65a03f1151561016f57600080fd5b505050505050565b806000806101000a81548173ffffffffffffffffffffffffffffffffffffffff021916908373ffffffffffffffffffffffffffffffffffffffff160217905550505600a165627a7a72305820feff6046afeaf56def4d256c5010288fe3ba0ee31d3eb4ce02b0b3faab965c740029",
  "source": "pragma solidity ^0.4.17;\n\nimport \"./IProjectDate.sol\";\nimport \"./ProjectDate.sol\";\n\ncontract ProjectDateProxy is IProjectDate {\n    IProjectDate pd;\n\n    function setTargetAddress(address targetContract) public {\n        pd = ProjectDate(targetContract);\n    }\n\n    function setDate(uint year, uint month, uint day) public {\n        pd.setDate(year, month, day);\n    }\n}",
  "sourcePath": "/home/matthew/Development/blockchain_project_mgmt_app/App/contracts/PM/ProjectDateProxy.sol",
  "compiler": {
    "name": "solc",
    "version": "0.4.19+commit.c4cbbb05.Emscripten.clang"
  },
  "schemaVersion": "2.0.0",
  "updatedAt": "2018-03-13T14:36:06.128Z"
}